:020000040800F2
:1000000018D900202535010835300108373001089E
:10001000393001083B3001083D3001080000000084
:100020000000000000000000000000003F30010858
:10003000413001080000000043300108453001084C
:10004000E9350108ED350108F1350108F5350108FC
:10005000F9350108FD3501080136010805360108AA
:10006000093601080D360108113601081536010858
:10007000193601081D360108213601082536010808
:10008000293601082D3601083136010835360108B8
:10009000393601083D360108413601084536010868
:1000A000493601084D360108513601085536010818
:1000B000593601085D3601086136010865360108C8
:1000C000693601086D360108713601087536010878
:1000D000793601087D360108813601088536010828
:1000E00081300108893601088D36010891360108F2
:1000F00095360108993601089D360108A136010898
:10010000A5360108A9360108AD360108B136010847
:10011000B5360108B9360108BD360108FF170108D8
:10012000C1360108C5360108C9360108CD360108B7
:10013000D1360108D5360108D9360108DD36010867
:10014000E1360108E5360108E9360108ED36010817
:10015000F1360108F5360108FB060108F9360108F9
:10016000FD36010801370108053701080937010884
:100170000D3701081137010815370108000000008C
:10018000193701081D3701082137010825370108F3
:10019000293701082D370108313701080000000018
:1001A00035370108393701083D37010879CE79CE56
:1001B00079CE79CE79CE79CE79CE79CE79CE79CE07
:1001C00079CE79CE79CE79CE79CE79CE79CE79CEF7
:1001D00079CE79CE79CE79CE79CE79CE79CE79CEE7
:1001E00079CE79CE79CE79CE79CE79CE79CE79CED7
:101AC00079CE79CE79CE79CE79CE79CE79CEEF7BBB
:101AD0000000450179CE79CE79CE79CE79CE79CE16
:101AE00079CE79CE79CE79CE79CE79CE79CE79CEBE
:101AF00079CE79CE79CE79CE79CE79CE79CE79CEAE
:101B000079CE79CE79CE79CE79CE79CE79CE79CE9D
:101B100079CE79CE79CE79CE79CE79CE79CE79CE8D
:101B200079CE79CE79CE79CE79CE79CE79CE79CE7D
:101B300079CE79CE79CE79CE79CE79CE79CE79CE6D
:101B400079CE79CE79CE79CE79CE79CE79CE79CE5D
:101B500079CE79CE79CE79CE79CE79CE79CE79CE4D
:101B600079CE79CE79CE79CE79CE79CE79CE79CE3D
:101B700079CE79CE79CE79CE79CE79CE79CE79CE2D
:101B800079CE79CE79CE79CE79CE79CE79CE79CE1D
:101B900079CE79CE79CE79CE79CE79CE79CE79CE0D
:101BA00079CE79CE79CE79CE79CE79CE79CE79CEFD
:101BB00079CE79CE79CE79CE79CE79CE79CE79CEED
:101BC00079CE79CE79CE79CE79CE79CE79CE79CEDD
:101BD00079CE79CE79CE79CE79CE79CE79CE79CECD
:101BE00079CE79CE79CE79CE79CE79CE79CE79CEBD
:101BF00079CE79CE79CE79CE79CE79CE79CE79CEAD
:101C000079CE79CE79CE79CE79CE79CE79CE40297A
:101C10000000050079CE79CE79CE79CE79CE79CE15
:101C200079CE79CE79CE79CE79CE79CE79CE79CE7C
:101C300079CE79CE79CE79CE79CE79CE79CE79CE6C
:101C400079CE79CE79CE79CE79CE79CE79CE79CE5C
:101C500079CE79CE79CE79CE79CE79CE79CE79CE4C
:101C600079CE79CE79CE79CE79CE79CE79CE79CE3C
:101C700079CE79CE79CE79CE79CE79CE79CE79CE2C
:101C800079CE4029050079CE79CE79CE79CE79CE3C
:101C900079CE79CE79CE79CE79CE79CE79CE79CE0C
:101CA00079CE79CE79CE79CE79CE79CE79CE79CEFC
:101CB00079CE79CE79CE79CE79CE79CE79CE79CEEC
:101CC00079CE79CE79CE79CE79CE79CE79CE79CEDC
:101CD00079CE79CE79CE79CE79CE79CE79CE79CECC
:101CE00079CE79CE79CE79CE79CE79CE79CE79CEBC
:101CF00079CE79CE79CE79CE79CE79CE79CE79CEAC
:101D000079CE79CE79CE79CE79CE79CE79CE79CE9B
:101D100079CE79CE79CE79CE79CE00280000EF7BCE
:101D200079CE79CE79CE79CE79CE79CE79CE79CE7B
:101D300079CE79CE40290000450179CE79CE79CE91
:101D400079CE79CE79CE79CE79CE79CE79CE402939
:101D50000000050079CE79CE79CE79CE79CE79CED4
:101D600079CE79CE79CE79CE79CE79CE79CE79CE3B
:101D700079CE79CE79CE79CE79CE79CE79CE79CE2B
:101D800079CE79CE79CE79CE79CE79CE79CE79CE1B
:101D900079CE79CE79CE79CE79CE79CE79CE79CE0B
:101DA00079CE79CE79CE79CE452900280000000081
:101DB000000000004501EF7B79CE79CE79CE79CE57
:101DC000EF7B0000050079CE79CE79CE79CE79CE41
:101DD00079CE79CE79CE79CE79CE79CE79CE79CECB
:101DE00079CE79CE79CE79CE79CE79CE79CE79CEBB
:101DF00079CE79CE79CE79CE79CE79CE79CE79CEAB
:101E000079CE79CE79CE79CE79CE79CE79CE79CE9A
:101E100079CE79CE79CE79CE79CE79CE79CE79CE8A
:101E200079CE79CE79CE79CE79CE79CE79CE79CE7A
:101E300079CE79CEEF7B45294029000000000000D3
:101E400000000000000000004529EF7B79CE79CE2C
:101E500079CE79CE79CE79CE402900000000EF7B93
:101E600079CE79CE79CE79CE79CE79CE79CE79CE3A
:101E700079CE79CE40290000050079CE79CE79CE91
:101E800079CE79CE79CE79CE79CE79CE79CE4029F8
:101E90000000450179CE79CE79CE79CE79CE79CE52
:101EA00079CE79CE79CE79CE79CE79CE79CE79CEFA
:101EB00079CE79CE79CE79CE79CE79CE79CE79CEEA
:101EC00079CE79CE79CE79CE79CE79CE79CE79CEDA
:101ED00079CE79CE79CE79CE79CE79CE79CE79CECA
:101EE00079CEEF7B402900000000000000000000D8
:101EF0000000000000000000EF7B79CE79CE79CEA3
:101F000040290000050079CE79CE79CE79CE79CE00
:101F100079CE79CE79CE79CE79CE79CE79CE79CE89
:101F200079CE79CE79CE79CE79CE79CE79CE79CE79
:101F300079CE79CE79CE79CE79CE79CE79CE79CE69
:101F400079CE79CE79CE79CE79CE79CE79CE79CE59
:101F500079CE79CE79CE79CE79CE79CE79CE79CE49
:101F600079CE79CE79CE79CE79CE79CE79CEEF7B16
:101F700040290000000000000000000000000000F8
:101F8000000000000000000000000000050079CE05
:101F900079CE79CE79CE79CE40290000050079CE70
:101FA00079CE79CE79CE79CE79CE79CE79CE79CEF9
:101FB00079CE79CE40290000450179CE79CE79CE0F
:101FC00079CE79CE79CE79CE79CE79CE79CE0028F8
:101FD0000000450179CE79CE79CE79CE79CE79CE11
:101FE00079CE79CE79CE79CE79CE79CE79CE79CEB9
:101FF00079CE79CE79CE79CE79CE79CE79CE79CEA9
:1020000079CE79CE79CE79CE79CE79CE79CE79CE98
:1020100079CE79CE79CE79CE79CE79CE79CE79CE88
:10202000EF7B0000000000004529EF7B79CE79CEE0
:1020300079CEEF7B00280000EF7B79CE79CE79CE88
:1020400040290000450179CE79CE79CE79CE79CE7E
:1020500079CE79CE79CE79CE79CE79CE79CE79CE48
:1020600079CE79CE79CE79CE79CE79CE79CE79CE38
:1020700079CE79CE79CE79CE79CE79CE79CE79CE28
:1020800079CE79CE79CE79CE79CE79CE79CE79CE18
:1020900079CE79CE79CE79CE79CE79CE79CE79CE08
:1020A00079CE79CE79CE79CE79CE79CE79CE002817
:1020B0000000000000004501EF7BEF7B79CE79CE78
:1020C00079CE79CE79CE79CEEF7B0028000045011C
:1020D00079CE79CE79CE79CE79CE79CE79CE79CEC8
:1020E00079CE79CE79CE79CE79CE79CE79CE79CEB8
:1020F00079CE79CE00280000450179CE79CE79CE0F
:1021000079CE79CE79CE79CE79CE79CE79CE0028B6
:102110000000EF7B79CE79CE79CE79CE79CE79CEAB
:1021200079CE79CE79CE79CE79CE79CE79CE79CE77
:1021300079CE79CE79CE79CE79CE79CE79CE79CE67
:1021400079CE79CE79CE79CE79CE79CE79CE79CE57
:1021500079CE79CE79CE79CE79CE79CE79CEEF7B24
:1021600000000000450179CE79CE79CE79CE79CEC6
:1021700079CE79CEEF7B050079CE79CE79CE79CE46
:1021800040290000450179CE79CE79CE79CE79CE3D
:1021900079CE79CE79CE79CE79CE79CE79CE79CE07
:1021A00079CE79CE79CE79CE79CE79CE79CE79CEF7
:1021B00079CE79CE79CE79CE79CE79CE79CE79CEE7
:1021C00079CE79CE79CE79CE79CE79CE79CE79CED7
:1021D00079CE79CE79CE79CE79CE79CE79CE79CEC7
:1021E00079CE79CE79CE79CE79CE79CEEF7B0000DB
:1021F0004501EF7B4029050079CE79CE79CE79CEA5
:1022000079CE79CE79CE79CE79CEEF7B00004501BB
:1022100079CE79CE79CE79CE79CE79CE79CE79CE86
:1022200079CE79CE79CE79CE79CE79CE79CE79CE76
:1022300079CE79CE00280000EF7B79CE79CE79CEA9
:1022400079CE79CE79CE79CE79CE79CE79CE002875
:102250000000EF7B79CE79CE79CE79CE79CE79CE6A
:1022600079CE79CE79CE79CE79CE79CE79CE79CE36
:1022700079CE79CE79CE79CE79CE79CE79CE79CE26
:1022800079CE79CE79CE79CE79CE79CE79CE79CE16
:1022900079CE79CE79CE79CE79CE79CE79CE002825
:1022A0000000450179CE79CE79CE79CE79CE79CE3E
:1022B00079CE79CE79CE79CE79CE79CE79CE79CEE6
:1022C00040290000EF7B79CE79CE79CE79CE79CED8
:1022D00079CE79CE79CE79CE79CE79CE79CE79CEC6
:1022E00079CE79CE79CE79CE79CE79CE79CE79CEB6
:1022F00079CE79CE79CE79CE79CE79CE79CE79CEA6
:1023000079CE79CE79CE79CE79CE79CE79CE79CE95
:1023100079CE79CE79CE79CE79CE79CE79CE79CE85
:1023200079CE79CE79CE79CE79CE79CE79CE79CE75
:1023300079CEEF7B0000050079CE79CE79CE79CECB
:1023400079CE79CE79CE79CE79CE40290000EF7B57
:1023500079CE79CE79CE79CE79CE79CE79CE79CE45
:1023600079CE79CE79CE79CE79CE79CE79CE79CE35
:1023700079CE79CE00280000EF7B79CE79CE79CE68
:1023800079CE79CE79CE79CE79CE79CEEF7B000039
:10239000050079CE79CE79CE79CE79CE79CE79CE47
:1023A00079CE79CE79CE79CE79CE79CE79CE79CEF5
:1023B00079CE79CE79CE79CE79CE79CE79CE79CEE5
:1023C00079CE79CE79CE79CE79CE79CE79CE79CED5
:1023D00079CE79CE79CE79CE79CE79CE79CE0028E4
:1023E0000000EF7B79CE79CE79CE79CE79CE79CED9
:1023F00079CE79CE79CE79CE79CE79CE79CE79CEA5
:1024000040290000EF7B79CE79CE79CE79CE79CE96
:1024100079CE79CE79CE79CE79CE79CE79CE79CE84
:1024200079CE79CE79CE79CE79CE79CE79CE79CE74
:1024300079CE79CE79CE79CE79CE79CE79CE79CE64
:1024400079CE79CE79CE79CE79CE79CE79CE79CE54
:1024500079CE79CE79CE79CE79CE79CE79CE79CE44
:1024600079CE79CE79CE79CE79CE79CE79CE79CE34
:1024700079CE40290000450179CE79CE79CE79CE4A
:1024800079CE79CE79CE79CEEF7B0000050079CE7A
:1024900079CE79CE79CE79CE79CE79CE79CE79CE04
:1024A00079CE79CE79CE79CE79CE79CE79CE79CEF4
:1024B00079CEEF7B0000050079CE79CE79CE79CE4A
:1024C00079CE79CE79CE79CE79CE79CEEF7B0000F8
:1024D000050079CE79CE79CE79CE79CE79CE79CE06
:1024E00079CE79CE79CE79CE79CE79CE79CEEF7B91
:1024F000050079CE79CE79CE79CE79CE79CE79CEE6
:1025000079CE79CE79CE79CE452900000000000041
:10251000EF7B79CE79CE79CE79CE79CE79CE40293E
:102520000000450179CE79CE79CE79CE79CE79CEBB
:1025300079CE79CE79CE79CE79CE79CE79CE79CE63
:1025400040290000EF7B79CE79CE79CE79CE79CE55
:1025500079CE79CE79CE79CE79CE79CE79CE79CE43
:1025600079CE79CE79CE79CE79CE79CE79CE45290C
:10257000000000000000EF7B79CE79CE79CE79CED5
:1025800079CE79CE79CE79CEEF7B0000EF7B79CE14
:1025900079CE79CE79CE79CE79CE79CE79CE79CE03
:1025A00079CE79CE79CE79CE79CE79CE79CE79CEF3
:1025B00079CE40290000EF7B79CE79CE79CE79CEE5
:1025C00079CE79CE79CE402900000000EF7B79CE1C
:1025D00079CE79CE79CE79CE79CE79CE79CE79CEC3
:1025E00079CE79CE79CE79CE79CE79CE79CE79CEB3
:1025F00079CEEF7B0000050079CE79CE79CE79CE09
:1026000079CE79CE79CE79CE79CE79CE40290000B7
:10261000450179CE79CE79CE79CE79CE40290000A8
:10262000EF7B79CE79CE79CE79CE79CE79CE40292D
:10263000050079CE79CE79CE79CE79CE79CE79CEA4
:1026400079CE79CEEF7B002800000000000000006A
:10265000050079CE79CE79CE79CE79CE79CEEF7B61
:1026600000000000450179CE79CE79CE79CE79CEC1
:1026700079CE79CE79CE79CE79CE79CE79CE79CE22
:102680000028050079CE79CE79CE79CE79CEEF7B50
:1026900000280000EF7B79CE79CE79CE79CE79CE45
:1026A00079CE79CE79CE79CE79CEEF7B0028000035
:1026B000000000000000050079CE79CE79CE79CEF9
:1026C00079CE79CE79CE79CE00280000EF7B79CE15
:1026D00079CE79CE402900000000EF7B79CE79CE0B
:1026E00079CE79CE79CE79CE79CE79CE79CE79CEB2
:1026F00079CE0028050079CE79CE79CE79CE79CE03
:1027000079CE79CE402900000000EF7B79CE79CEDA
:1027100079CE79CE79CEEF7B0000EF7B79CE79CE82
:1027200079CE79CE79CE79CE79CE79CE79CE79CE71
:1027300079CE40290000050079CE79CE79CE79CEC8
:10274000EF7BEF7BEF7BEF7B452900000000000073
:10275000450179CE79CE79CE79CE79CE00280000A8
:10276000EF7B79CE79CE79CE79CE79CEEF7B000032
:10277000450179CE79CE79CE79CE79CE79CE79CE22
:1027800079CEEF7B00000000450179CE79CE00289C
:10279000050079CE79CE79CE79CE79CE79CE79CE43
:1027A000EF7B0000000000004501EF7B79CE79CE81
:1027B00079CE79CE79CE79CE79CE79CE79CE79CEE1
:1027C0000028050079CE79CE79CE79CE4029000057
:1027D00000000000450179CE79CE79CE79CE79CE50
:1027E00079CE79CE79CE79CEEF7B0000000045011D
:1027F00079CE79CE0028050079CE79CE79CE79CE02
:1028000079CE79CE79CEEF7B0000050079CE79CEF6
:1028100079CE0028000000000000050079CE79CEB6
:1028200079CE79CE79CE79CE79CE79CE79CE452949
:10283000EF7B0000050079CE79CE79CE79CE79CEC6
:10284000EF7B000000000500EF7B79CE79CE79CEDA
:1028500079CE79CE79CE00280000EF7B79CE79CE83
:1028600079CE79CE79CE79CE79CE79CE79CE79CE30
:1028700079CE4029000000000000000000000000A8
:102880000000000000000000000000000000000048
:10289000EF7B79CE79CE79CE79CE79CE0028000043
:1028A000EF7B79CE79CE79CE79CE79CE40290000F2
:1028B000450179CE79CE79CE79CE79CE79CE79CEE1
:1028C000EF7B00000000EF7B79CE79CE79CE002837
:1028D000450179CE79CE79CE79CE79CE79CE79CEC1
:1028E000EF7B000000280000000000000000050051
:1028F000EF7B79CE79CE79CE79CE79CE79CE79CE7D
:102900000028050079CE79CE79CE40290000450116
:10291000EF7B0000050079CE79CE79CE79CE79CEE5
:1029200079CE79CE79CEEF7B00000000EF7B79CEB7
:1029300079CE79CE0028450179CE79CE79CE79CE7F
:1029400079CE79CE79CE40290000450179CE79CE75
:1029500000280000EF7B79CE00280000EF7B79CEC5
:1029600079CE79CE79CE79CE79CE79CE402905004F
:10297000EF7B0000450179CE79CE79CEEF7B000068
:1029800000000000EF7B79CE79CE79CE79CE79CE7A
:1029900079CE79CEEF7B00000000EF7B79CE79CE47
:1029A00079CE79CE79CE79CE79CE79CE79CE79CEEF
:1029B00079CE4029000000004501EF7BEF7B79CE06
:1029C00079CE79CE79CE79CE79CE79CE0028000035
:1029D000EF7B79CE79CE79CE79CE79CE00280500FD
:1029E00079CE79CE79CE79CE79CEEF7B000000001A
:1029F000450179CE79CE79CE79CE79CE79CE79CEA0
:102A000000000000450179CE79CE79CEEF7B000041
:102A1000450179CE79CE79CE79CE79CE79CE79CE7F
:102A20000028450179CEEF7B40290000000000001E
:102A300000000500EF7B79CE79CE79CE79CE79CEC4
:102A40000028450179CE79CE40290000450179CE94
:102A500079CE0028050079CE79CE79CE79CE79CE9F
:102A600079CE79CEEF7B00000000450179CE79CE9A
:102A700079CEEF7B0000450179CE79CE79CE79CE43
:102A800079CE79CE79CE00000000EF7B79CE402957
:102A90000000EF7B79CE79CE40290000EF7B79CE24
:102AA00079CE79CE79CE79CE79CEEF7B0000EF7BEF
:102AB000EF7B0000450179CE4029000000000000B6
:102AC000450179CE79CE79CE79CE79CE79CE79CECF
:102AD00079CE79CEEF7B0000050079CE79CE79CE24
:102AE00079CE79CE79CE79CE79CE79CE79CE79CEAE
:102AF00079CE00280000EF7B79CE79CE79CE79CEE1
:102B000079CE79CE79CE79CE79CE79CE00280000F3
:102B1000EF7B79CE79CE79CE79CE79CE00280500BB
:102B200079CE79CE79CE79CE79CE402900000000D9
:102B3000450179CE79CE79CE79CE79CEEF7B000082
:102B40000000050079CE79CE79CE79CEEF7B0000FA
:102B5000EF7B79CE79CE79CE79CE79CEEF7B002816
:102B6000050079CE79CE79CE79CE79CE79CE452948
:102B7000000000000000EF7B79CE79CE79CEEF7BAC
:102B80000000450179CEEF7B0000450179CE79CE7A
:102B900079CE0028050079CE79CE79CE79CE79CE5E
:102BA00079CEEF7B00000000050079CE79CE79CE9A
:102BB00079CEEF7B0000EF7B79CE79CE79CE79CEDE
:102BC00079CEEF7B002800000000EF7B4029000059
:102BD000450179CE79CE79CE40290000EF7B79CEC0
:102BE00079CE79CE79CE79CE40290000450179CED3
:102BF0004029000000000000000000004501EF7BBC
:102C000079CE79CE79CE79CE79CE79CE79CE79CE8C
:102C100079CE79CEEF7B0000050079CE79CE79CEE2
:102C200079CE79CE79CE79CEEF7B79CE79CE79CE49
:102C300079CE0028050079CE79CE79CE79CE79CEBD
:102C400079CE79CE79CE79CE79CE79CE00280000B2
:102C5000EF7B79CE79CE79CE79CEEF7B000045013E
:102C600079CE79CE79CE79CEEF7B0000EF7B00284C
:102C7000050079CE79CE79CE79CEEF7B00000000C9
:102C80000000EF7B79CE79CE79CE79CE0028000096
:102C9000450179CE79CE79CE79CEEF7B0000050063
:102CA00079CE79CE79CE79CE79CE79CE79CE79CEEC
:102CB00079CE00280000450179CE79CE79CEEF7B20
:102CC00000004501EF7B0000450179CE79CE79CE39
:102CD00079CE40290000EF7B79CE79CE79CE79CEBE
:102CE0004029000000000000EF7B79CE79CE79CE3C
:102CF00079CE00280000450179CE79CE79CE79CE03
:102D0000EF7B0000050000280500452900000500B4
:102D100079CE79CE79CE79CEEF7B0000450179CEA0
:102D200079CE79CE79CE40290000450179CE79CE91
:102D30004029000000000000452979CE79CE79CEE7
:102D400079CE79CE79CE79CE79CE79CE79CE79CE4B
:102D500079CE79CEEF7B0000050079CE79CE79CEA1
:102D600079CE79CE79CEEF7B000079CE79CE79CE4F
:102D7000EF7B0000050079CE79CE79CE79CE79CE81
:102D800079CE79CE79CE79CE79CEEF7B0000050071
:102D900079CE79CE79CE79CE79CEEF7B0000EF7BFC
:102DA00079CE79CE79CEEF7B0000450179CE4029EE
:102DB0000000450179CEEF7B0028000000000000F4
:102DC000050079CE79CE79CE79CE40290000000079
:102DD0000000EF7B79CEEF7B40290000050079CE23
:102DE00079CE79CE79CE79CE79CE79CE79CE79CEAB
:102DF00079CE40290000450179CE79CE79CEEF7B9E
:102E00000000EF7B0028050079CE79CE79CE79CE0F
:102E100079CE40290000450179CE79CE45290000C0
:102E2000000045010028050079CE79CE79CE79CE13
:102E30004029000000000000EF7B79CEEF7B4029A5
:102E40000000050079CE002800000000050079CEC2
:102E500079CE79CE79CE79CEEF7B00000500EF7B7D
:102E600079CEEF7B00280000450179CE79CE79CE6E
:102E700040290000452979CE79CE79CE79CE79CE18
:102E800079CE79CE79CE79CE79CE79CE79CE79CE0A
:102E900079CE79CEEF7B0000050079CE79CE79CE60
:102EA00079CE79CEEF7B0000050079CE79CE79CE50
:102EB000EF7B0000450179CE79CE79CE79CE79CEFF
:102EC00079CE79CE79CE79CE79CEEF7B0000050030
:102ED00079CE79CE79CE79CE79CE40290000EF7BBC
:102EE00079CE79CEEF7B0000050079CE79CEEF7BED
:102EF000000000000000000000004529EF7B0000FA
:102F0000450179CE79CE79CE40290000EF7B0028AB
:102F100000000000000000000000450179CE79CEDD
:102F200079CE79CE79CE79CE79CE79CE79CE79CE69
:102F3000EF7B00000000EF7B79CE79CE79CE40297F
:102F4000000000000000EF7B79CE79CE79CE79CEFB
:102F500079CEEF7B000000000000000000000500BB
:102F6000EF7BEF7B0000450179CE79CE79CE402909
:102F70000000EF7B002800000000000000000000BF
:102F8000450179CE79CE002800000000EF7B79CE94
:102F900079CE79CE79CE79CE79CE40290000000065
:102FA000000000000000EF7B79CE79CE79CE79CE9B
:102FB00040290000EF7B79CE79CE79CE79CE79CEDB
:102FC00079CE79CE79CE79CE79CE79CE79CE79CEC9
:102FD00079CE79CEEF7B0000050079CE79CE79CE1F
:102FE00079CEEF7B0000050079CE79CE79CE79CE0F
:102FF00040290000450179CE79CE79CE79CE79CEBF
:1030000079CE79CE79CE79CE79CEEF7B00000500EE
:1030100079CE79CE79CE79CE79CE40290000EF7B7A
:1030200079CE45290000050079CE79CE79CE79CECA
:103030004529000000004501EF7B79CEEF7B0000C1
:10304000450179CEEF7B00280000EF7B79CE79CE69
:103050004029000000000500EF7B79CE79CE79CEC3
:1030600079CE79CE79CE79CE79CE79CEEF7B4029E3
:1030700000000000EF7B79CE79CE79CE79CE402961
:1030800000000000450179CE79CE79CE79CE79CE97
:1030900079CE79CE4029000000000000EF7B79CE88
:1030A00079CEEF7B0000450179CEEF7B0028000050
:1030B000EF7B79CE79CE4029000000000500EF7B40
:1030C00079CE79CE79CE40290000EF7B79CE79CECA
:1030D00079CE79CE79CE79CE79CE79CE002800001E
:1030E0000000450179CE79CE79CE79CE79CE79CEF0
:1030F00040290000450179CE79CE79CE79CE79CEBE
:1031000079CE79CE79CE79CE79CE79CE79CE79CE87
:1031100079CE79CE79CE00280000450179CEEF7BBB
:1031200000280000050079CE79CE79CE79CE79CE0F
:1031300000280000450179CE79CE79CE79CE79CEBE
:1031400079CE79CE79CE79CE79CE402900000500AE
:1031500079CE79CE79CE79CE79CE402900000000A3
:10316000000000000500EF7B79CE79CE79CE79CED4
:1031700079CE79CE79CE79CE79CE79CE79CE002836
:103180000000000000000500EF7B79CE79CE79CEFB
:1031900079CE79CE79CE79CE79CE79CEEF7B050016
:1031A000EF7B79CE79CE79CEEF7B0028000000004E
:1031B0000500EF7B79CE79CE79CE79CE79CE4029D4
:1031C0000000050079CE79CE79CE79CE79CE79CE50
:1031D00079CE79CE79CE79CE79CE79CE79CE79CEB7
:1031E00079CE79CE00280000000000000500EF7BBA
:1031F00079CE79CE79CE79CE79CE79CE79CE79CE97
:1032000079CE79CE79CE79CE79CE79CE79CE79CE86
:1032100079CE79CE79CE79CE79CE79CE79CE79CE76
:1032200079CE79CE79CE79CE79CE79CE79CE79CE66
:1032300040290000450179CE79CE79CE79CE79CE7C
:1032400079CE79CE79CE79CE79CE79CE79CE79CE46
:1032500079CE79CE79CEEF7B00000000000000002F
:103260000000450179CE79CE79CE79CE79CE79CE6E
:1032700000280000450179CE79CE79CE79CE79CE7D
:1032800079CE79CE79CE79CE79CE4029000005006D
:1032900079CE79CE79CE79CE79CE79CE002800005C
:1032A0000000452979CE79CE79CE79CE79CE79CE06
:1032B00079CE79CE79CE79CE79CE79CE79CEEF7BB3
:1032C00000000000452979CE79CE79CE79CE79CE2D
:1032D00079CE79CE79CE79CE79CE79CE40290000DB
:1032E0000000000000000000000000000000EF7B74
:1032F00079CE79CE79CE79CE79CE79CE79CE0028B5
:103300000000450179CE79CE79CE79CE79CE79CECD
:1033100079CE79CE79CE79CE79CE79CE79CE79CE75
:1033200079CE79CEEF7B00000000452979CE79CEA9
:1033300079CE79CE79CE79CE79CE79CE79CE79CE55
:1033400079CE79CE79CE79CE79CE79CE79CE79CE45
:1033500079CE79CE79CE79CE79CE79CE79CE79CE35
:1033600079CE79CE79CE79CE79CE79CE79CE79CE25
:1033700040290000450179CE79CE79CE79CE79CE3B
:1033800079CE79CE79CE79CE79CE79CE79CE79CE05
:1033900079CE79CE79CE79CE45290000000005009E
:1033A000EF7B79CE79CE79CE79CE79CE79CE79CEC2
:1033B000EF7B0000EF7B79CE79CE79CE79CE79CED6
:1033C00079CE79CE79CE79CE79CEEF7B0000EF7BC6
:1033D00079CE79CE79CE79CE79CE79CE79CE79CEB5
:1033E00079CE79CE79CE79CE79CE79CE79CE79CEA5
:1033F00079CE79CE79CE79CE79CE79CE79CE79CE95
:1034000079CE79CE79CE79CE79CE79CE79CE79CE84
:1034100079CE79CE79CE79CE79CE79CE79CE402952
:1034200000000000000005004529EF7B79CE79CE31
:1034300079CE79CE79CE79CE79CE79CE79CE402932
:10344000050079CE79CE79CE79CE79CE79CE79CE86
:1034500079CE79CE79CE79CE79CE79CE79CE79CE34
:1034600079CE79CE79CE79CE79CE79CE79CE79CE24
:1034700079CE79CE79CE79CE79CE79CE79CE79CE14
:1034800079CE79CE79CE79CE79CE79CE79CE79CE04
:1034900079CE79CE79CE79CE79CE79CE79CE79CEF4
:1034A00079CE79CE79CE79CE79CE79CE79CE79CEE4
:1034B00040290000450179CE79CE79CE79CE79CEFA
:1034C00079CE79CE79CE79CE79CE79CE79CE79CEC4
:1034D00079CE79CE79CE79CE79CE79CE79CE79CEB4
:1034E00079CE79CE79CE79CE79CE79CE79CE79CEA4
:1034F00079CE79CE79CE79CE79CE79CE79CE79CE94
:1035000079CE79CE79CE79CE79CE79CE79CE79CE83
:1035100079CE79CE79CE79CE79CE79CE79CE79CE73
:1035200079CE79CE79CE79CE79CE79CE79CE79CE63
:1035300079CE79CE79CE79CE79CE79CE79CE79CE53
:1035400079CE79CE79CE79CE79CE79CE79CE79CE43
:1035500079CE79CE79CE79CE79CE79CE79CE79CE33
:1035600079CE79CE79CE79CE79CE79CE79CE79CE23
:1035700079CE79CE79CE79CE79CE79CE79CE79CE13
:1035800079CE79CE79CE79CE79CE79CE79CE79CE03
:1035900079CE79CE79CE79CE79CE79CE79CE79CEF3
:1035A00079CE79CE79CE79CE79CE79CE79CE79CEE3
:1035B00079CE79CE79CE79CE79CE79CE79CE79CED3
:1035C00079CE79CE79CE79CE79CE79CE79CE79CEC3
:1035D00079CE79CE79CE79CE79CE79CE79CE79CEB3
:1035E00079CE79CE79CE79CE79CE79CE79CE79CEA3
:1035F00079CE0028450179CE79CE79CE79CE79CEB3
:1036000079CE79CE79CE79CE79CE79CE79CE79CE82
:1036100079CE79CE79CE79CE79CE79CE79CE79CE72
:1036200079CE79CE79CE79CE79CE79CE79CE79CE62
:1036300079CE79CE79CE79CE79CE79CE79CE79CE52
:1059A00079CE79CE79CE40290000450179CE79CEE5
:1059B00079CE79CE79CE79CE79CE79CE79CE79CEAF
:1059C00079CE79CE79CEEF7B45294529EF7B79CE0B
:1059D00079CE79CE79CE79CE79CE79CE79CE79CE8F
:1059E00079CE79CE79CE79CEEF7BEF7BEF7B79CE16
:1059F00079CE79CE79CE79CE79CE79CE79CE79CE6F
:105A000079CE79CE79CE79CE79CE79CE79CE79CE5E
:105A100079CE79CE79CE79CE79CE79CE79CE79CE4E
:105A200079CE79CE79CE79CE79CE79CE79CE79CE3E
:105A300079CE79CE79CE79CE79CE79CE79CE79CE2E
:105A400079CE79CE79CE79CE79CE79CE79CE79CE1E
:105A500079CE79CE79CE79CE79CE79CE79CE79CE0E
:105A600079CE79CE79CE79CE79CE79CE79CE79CEFE
:105A700079CE79CE79CE79CE79CE79CE79CE79CEEE
:105A800079CE79CE79CE79CE79CE79CE79CE79CEDE
:105A900079CE79CE79CE79CE79CE79CE79CE79CECE
:105AA00079CE79CE79CE79CE79CE79CE79CE79CEBE
:105AB00079CE79CE79CE79CE79CE79CE79CE79CEAE
:105AC00079CE79CE79CE79CE79CE79CE79CEEF7B7B
:105AD000EF7B79CE79CE79CE79CE79CE79CE79CE6B
:105AE00079CE79CE79CE40290000450179CE79CEA4
:105AF00079CE79CE79CE79CE79CE79CE79CE79CE6E
:105B000079CE79CE79CE002800000000450179CE0B
:105B100079CE79CE79CE79CE79CE79CE79CE79CE4D
:105B200079CE79CE79CE79CE40290000050079CEA4
:105B300079CE79CE79CE79CE79CE79CE79CE79CE2D
:105B400079CE79CE79CE79CE79CE79CE79CE79CE1D
:105B500079CE79CE79CE79CE79CE79CE79CE79CE0D
:105B600079CE79CE79CE79CE79CE79CE79CE79CEFD
:105B700079CE79CE79CE79CE79CE79CE79CE79CEED
:105B800079CE79CE79CE79CE79CE79CE79CE79CEDD
:105B900079CE79CE79CE79CE79CE79CE79CE79CECD
:105BA00079CE79CE79CE79CE79CE79CE79CE79CEBD
:105BB00079CE79CE79CE79CE79CE79CE79CE79CEAD
:105BC00079CEEF7BEF7BEF7BEF7BEF7BEF7BEF7BA8
:105BD000EF7BEF7BEF7BEF7BEF7BEF7BEF7BEF7B75
:105BE000EF7BEF7BEF7BEF7BEF7BEF7BEF7BEF7B65
:105BF000EF7BEF7BEF7B79CE79CE79CEEF7BEF7BBE
:105C0000EF7B45294529000000000000000000004E
:105C10000000EF7B79CE79CE79CE79CE79CE79CE70
:105C200079CE79CE79CE40290000450179CE79CE62
:105C300079CE79CE79CE79CE79CE79CE79CE79CE2C
:105C400079CE79CE40290000000000000000450117
:105C500079CE79CE79CE79CE79CE79CE79CE79CE0C
:105C600079CE79CE79CE79CE40290000050079CE63
:105C700079CE79CE79CE79CE79CE79CE79CE79CEEC
:105C800079CE79CE79CE79CE79CE79CE79CE79CEDC
:105C900079CE79CE79CE79CE79CE79CE79CE79CECC
:105CA000EF7B45294529452979CE79CE79CE79CE24
:105CB00079CE79CE79CE45294529452945294529E9
:105CC0004529452945294529EF7B79CE79CE79CEDD
:105CD00079CE79CE79CE79CE79CE79CE79CE79CE8C
:105CE00079CE79CE79CE79CE79CE79CE79CE79CE7C
:105CF00079CE79CE79CE79CE79CE79CE79CE79CE6C
:105D000079CE4029000000000000000000000000E3
:105D10000000000000000000000000000000000083
:105D20000000000000000000000000000000000073
:105D300000000000450179CE79CE79CE0028000020
:105D40000000000000000000000000000000000053
:105D50000000450179CE79CEEF7BEF7B79CE79CE0D
:105D600079CE79CE79CE40290000450179CE79CE21
:105D700079CE79CE79CE79CE79CE79CE79CE79CEEB
:105D800079CEEF7B000000004501402900000000B3
:105D9000450179CE79CE79CE79CE79CE40290000F1
:105DA000452979CE79CE79CE40290000050079CEFB
:105DB00079CE79CE79CE79CE79CE79CE79CE79CEAB
:105DC00079CE79CE79CE79CE79CE79CE79CE79CE9B
:105DD00079CE79CE79CE79CE79CE79CE79CE79CE8B
:105DE000002800000000450179CE79CE79CE79CE29
:105DF00079CE79CE79CE00280000000000000000A6
:105E00000000000000000000000000000500EF7B23
:105E100079CE79CE79CE79CE79CE79CE79CE79CE4A
:105E200079CE79CE79CE79CE79CE79CE79CE79CE3A
:105E300079CE79CE79CE79CE79CE79CE79CE79CE2A
:105E400079CE4029000000000000000000000000A2
:105E50000000000000000000000000000000000042
:105E60000000000000000000000000000000000032
:105E700000000000450179CE79CE79CE00280000DF
:105E800000004529002800000500EF7B79CE79CE7F
:105E900079CE79CE79CEEF7B00000000EF7B79CE12
:105EA00079CE79CE79CE40290000450179CE79CEE0
:105EB00079CE79CE79CE79CE79CE79CE79CE79CEAA
:105EC00079CE00280000050079CE79CE4029000067
:105ED0000000450179CE79CE79CE79CE40290000F7
:105EE000450179CE79CE79CE40290000050079CEE2
:105EF00079CE79CE79CE79CE79CE79CE79CE79CE6A
:105F000079CE79CE79CE79CE79CE79CE79CE79CE59
:105F100079CE79CE79CE79CE79CE79CE79CE402927
:105F2000000000000000450179CE79CE79CE79CE0F
:105F300079CE79CE79CE0028000000000000000064
:105F40000000000000000000000000000000000051
:105F50000500EF7B79CE79CE79CE79CE79CE79CE28
:105F600079CE79CE79CE79CE79CE79CE79CE79CEF9
:105F700079CE79CE79CE79CE79CE79CE79CE79CEE9
:105F800079CE79CE79CE79CE79CE79CE79CE79CED9
:105F900079CE79CE79CE79CEEF7B00000000EF7B11
:105FA00079CE79CE79CE79CE79CE79CE79CE79CEB9
:105FB00079CE79CE79CE79CE79CE79CE79CE79CEA9
:105FC00079CE79CE40290000050079CE79CE79CE00
:105FD00079CE79CE79CE79CE4029000000004501F6
:105FE00079CE79CE79CE40290000450179CE79CE9F
:105FF00079CE79CE79CE79CE79CE79CE79CE79CE69
:10600000402900000000EF7B79CE79CE79CE40297F
:1060100000000000450179CE79CE79CE40290000FC
:10602000450179CE79CE79CE40290000050079CEA0
:1060300079CE79CE79CE79CE79CE79CE79CE79CE28
:1060400079CE79CE79CE79CE79CE79CE79CE79CE18
:1060500079CE79CE79CE79CE79CE79CEEF7B00002C
:10606000000000000000450179CE79CE79CE79CECE
:1060700079CE79CE79CE00280000050079CE79CE90
:1060800079CE79CE79CE79CEEF7B40290000000021
:1060900000000000EF7B79CE79CE79CE79CE79CE33
:1060A00079CE79CE79CE79CE79CE79CE79CE79CEB8
:1060B00079CE79CE79CE79CE79CE79CE79CE79CEA8
:1060C00079CE79CE79CE79CE79CE79CE79CE79CE98
:1060D00079CE79CE79CE79CEEF7B00000000EF7BD0
:1060E00079CE79CE79CE79CE79CE79CE79CE79CE78
:1060F00079CE79CE79CE79CE79CE79CE79CE79CE68
:1061000079CE79CE40290000050079CE79CE79CEBE
:1061100079CE79CE79CE79CE79CE402900000000B3
:10612000450179CE79CE40290000450179CE79CE5E
:1061300079CE79CE79CE79CE79CE79CE79CE402905
:1061400000000000EF7B79CE79CE79CE79CE79CE82
:10615000402900000000450179CE79CE4029000099
:10616000450179CE79CE79CE40290000050079CE5F
:1061700079CE79CE79CE79CE79CE79CE79CE79CEE7
:1061800079CE79CE79CE79CE79CE79CE79CE79CED7
:1061900079CE79CE79CE79CE79CE79CE40290000EC
:1061A000000000000000450179CE79CE79CE79CE8D
:1061B00079CE79CE79CE00280000050079CE79CE4F
:1061C00079CE79CE79CE79CE79CE79CEEF7B002893
:1061D000000000000000EF7B79CE79CE79CE79CE39
:1061E00079CE79CE79CE79CE79CE79CE79CE79CE77
:1061F00079CE79CE79CE79CE79CE79CE79CE79CE67
:1062000079CE79CE79CE79CE79CE79CE79CE79CE56
:1062100079CE79CE79CE79CEEF7B00000000EF7B8E
:1062200079CE79CE79CE79CE79CE79CE79CE79CE36
:1062300079CE79CE79CE79CE79CE79CE79CE79CE26
:1062400079CE79CE40290000050079CE79CE79CE7D
:1062500079CE79CE79CE79CE79CE79CE402900002B
:106260000000050079CE40290000450179CE79CEA5
:1062700079CE79CE79CE79CE79CE79CE402900000B
:106280000000450179CE79CE79CE79CE79CE79CE1E
:1062900079CE402900000000450179CE4029000058
:1062A000450179CE79CE79CE40290000050079CE1E
:1062B00079CE79CE79CE79CE79CE79CE79CE79CEA6
:1062C00079CE79CE79CE79CE79CE79CE79CE79CE96
:1062D00079CE79CE79CE79CE79CEEF7B00000000F1
:1062E000452900000000450179CE79CE79CE79CEDE
:1062F00079CE79CE79CE00280000050079CE79CE0E
:1063000079CE79CE79CE79CE79CE79CE79CE79CE55
:10631000402900000000050079CE79CE79CE79CEF3
:1063200079CE79CE79CE79CE79CE79CE79CE79CE35
:1063300079CE79CE79CE79CE79CE79CE79CE79CE25
:1063400079CE79CE79CE79CE79CE79CE79CE79CE15
:1063500079CE79CE79CE79CEEF7B00000000EF7B4D
:1063600079CE79CE79CE79CE79CE79CE79CE79CEF5
:1063700079CE79CE79CE79CE79CE79CEEF7BEF7B9F
:10638000EF7BEF7B402900000500EF7BEF7BEF7B8D
:10639000EF7B79CE79CE79CE79CE79CE79CEEF7B7F
:1063A0000000EF7B79CE40290000450179CE79CEFF
:1063B00079CE79CE79CE79CE79CE40290000000011
:1063C000050079CE79CE79CE79CE79CE79CE79CED7
:1063D00079CE79CE40290000450179CE40290000D0
:1063E000450179CE79CE79CE40290000050079CEDD
:1063F00079CE79CE79CE79CE79CE79CE79CE79CE65
:1064000079CE79CE79CE79CE79CE79CE79CE79CE54
:1064100079CE79CE79CE79CE79CE002800004501AB
:10642000EF7B00000000450179CE79CE79CE79CEA0
:1064300079CE79CE79CE00280000050079CE79CECC
:1064400079CE79CE79CE79CE79CE79CE79CE79CE14
:1064500079CE002800000000EF7B79CE79CE79CE8E
:1064600079CE79CE79CE79CE79CE79CE79CE79CEF4
:1064700079CE79CE79CE79CE79CE79CE79CE79CEE4
:1064800079CE79CE79CE79CE79CE79CE79CE79CED4
:1064900079CE79CE79CE79CEEF7B00000000EF7B0C
:1064A00079CE79CE79CE79CE79CE79CE79CE79CEB4
:1064B00079CE79CE79CE79CE79CEEF7B000000000F
:1064C00000000000000000000000000000000000CC
:1064D0000000450179CE79CE79CE79CE79CE79CECC
:1064E000EF7B79CE79CE40290000450179CE79CE77
:1064F00079CE79CE79CE79CE402900000000050012
:1065000079CE79CE79CE79CE79CE79CE79CE79CE53
:1065100079CE79CE79CE452979CE79CE4029000041
:10652000450179CE79CE79CE40290000050079CE9B
:1065300079CE79CE79CE79CE79CE79CE79CE79CE23
:1065400079CE79CE79CE79CE79CE79CE79CE79CE13
:1065500079CE79CE79CE79CE40290000050079CE6A
:10656000EF7B00000000450179CE79CE79CE79CE5F
:1065700079CE79CE79CE00280000050079CE79CE8B
:1065800079CE79CE79CE79CE79CE79CE79CE79CED3
:1065900079CEEF7B00000000050079CE79CE79CE70
:1065A00079CE79CE79CE79CE79CE79CE79CE79CEB3
:1065B00079CE79CE79CE79CE79CE79CE79CE79CEA3
:1065C00079CE79CE79CE79CE79CE79CE79CE79CE93
:1065D00079CE79CE79CE79CEEF7B00000000EF7BCB
:1065E00079CE79CE79CE79CE79CE79CE79CE79CE73
:1065F00079CE79CE79CE79CE79CEEF7B00000000CE
:10660000000000000000000000000000000000008A
:1066100000004501EF7BEF7B79CE79CE79CE79CE44
:1066200079CE79CE79CE40290000450179CE79CE58
:1066300079CE79CE79CEEF7B0000000000004501D5
:1066400045294529452945294529452945294529DA
:1066500045294529452979CE79CE79CE40290000B2
:10666000450179CE79CE79CE40290000050079CE5A
:1066700079CE79CE79CE79CE79CE79CE79CE79CEE2
:1066800079CE79CE79CE79CE79CE79CE79CE79CED2
:1066900079CE79CE79CEEF7B00000000450179CE2E
:1066A000EF7B00000000450179CE79CE79CE79CE1E
:1066B00079CE79CE79CE00280000050079CE79CE4A
:1066C00079CE79CE79CE79CE79CE79CE79CE79CE92
:1066D00079CE79CE002800000000EF7B79CE79CE0C
:1066E00079CE79CE79CE79CE79CE79CE79CE79CE72
:1066F00079CE79CE79CE79CE79CE79CE79CE79CE62
:1067000079CE79CE79CE79CE79CE79CE79CE79CE51
:1067100079CE79CE79CE79CEEF7B00000000EF7B89
:1067200079CE79CE79CE79CE79CE79CE79CE79CE31
:1067300079CE79CE79CE79CE79CE79CE79CE79CE21
:1067400079CE79CE00280000050079CE79CE79CEB9
:1067500079CE79CE00280000450179CE79CE79CE68
:1067600079CE79CE79CE40290000450179CE79CE17
:1067700079CE79CE79CE79CE00280500EF7B000066
:106780000000000000000000000000000000000009
:1067900000000000050079CE79CE79CE40290000B6
:1067A000450179CE79CE79CE40290000050079CE19
:1067B00079CE79CE79CE79CE79CE79CE79CE79CEA1
:1067C00079CE79CE79CE79CE79CE79CE79CE79CE91
:1067D00079CE79CE79CE00280000050079CE79CE29
:1067E000EF7B00000000450179CE79CE79CE79CEDD
:1067F00079CE79CE79CE00280000050079CE79CE09
:1068000079CE79CE79CE79CE79CE79CE79CE79CE50
:1068100079CE79CE002800000000EF7B79CE79CECA
:1068200079CE79CE79CE79CE79CE79CE79CE79CE30
:1068300079CE79CE79CE79CE79CE79CE79CE79CE20
:1068400079CE79CE79CE79CE79CE79CE79CE79CE10
:1068500079CE79CE79CE79CEEF7B00000000EF7B48
:1068600079CE79CE79CE79CE79CE79CE79CE79CEF0
:1068700079CE79CE79CE79CE79CE79CE79CE79CEE0
:1068800079CEEF7B00000000050079CE79CE79CE7D
:1068900079CE79CE402900000000050079CE79CE6E
:1068A00079CE79CE79CE40290000450179CE79CED6
:1068B00079CE79CE79CE79CE79CE79CEEF7B0000C4
:1068C00000004529452945294529452945294529C6
:1068D00000280000050079CE79CE79CE402900004D
:1068E000450179CE79CE79CE40290000050079CED8
:1068F00079CE79CE79CE79CE79CE79CE79CE79CE60
:1069000079CE79CE79CE79CE79CE79CE79CE79CE4F
:1069100079CE79CE00280000050079CE79CE79CEE7
:10692000EF7B00000000450179CE79CE79CE79CE9B
:1069300079CE79CE79CE00280000050079CE79CEC7
:1069400079CE79CE79CE79CE79CE79CE79CE79CE0F
:1069500079CE79CE402900000000EF7B79CE79CE48
:1069600079CE79CE79CE79CE79CE79CE79CE79CEEF
:1069700079CE79CE79CE79CE79CE79CE79CE79CEDF
:1069800079CE79CE79CE79CE79CE79CE79CE79CECF
:1069900079CE79CE79CE79CEEF7B00000000EF7B07
:1069A00079CE79CE79CE79CE79CE79CE79CE79CEAF
:1069B00079CE79CE79CE79CE79CE79CE79CE79CE9F
:1069C00079CE40290000000005004529452979CEEF
:1069D00079CE79CE79CEEF7B000000000500EF7B09
:1069E00079CE79CE79CE40290000450179CE79CE95
:1069F00079CE79CE79CE79CE79CE79CEEF7B000083
:106A0000050079CE79CE79CE79CE79CE79CE79CE90
:106A1000EF7B0000050079CE79CE79CE40290000C9
:106A2000450179CE79CE79CE40290000050079CE96
:106A300079CE79CE79CE79CE79CE79CE79CE79CE1E
:106A400079CE79CE79CE79CE79CE79CE79CE79CE0E
:106A500079CE402900000000EF7B79CE79CE79CE47
:106A6000EF7B00000000450179CE79CE79CE79CE5A
:106A700079CE79CE79CE00280000050079CE79CE86
:106A800079CE79CE79CE79CE79CE79CE79CE79CECE
:106A900079CE79CE402900000000EF7B79CE79CE07
:106AA00079CE79CE79CE79CE79CE79CE79CE79CEAE
:106AB00079CE79CE79CE79CE79CE79CE79CE79CE9E
:106AC00079CE79CE79CE79CE79CE79CE79CE79CE8E
:106AD00079CE79CE79CE79CEEF7B00000000EF7BC6
:106AE00079CE79CE79CE79CE79CE79CE79CE79CE6E
:106AF00079CE79CE79CE79CE79CE79CE79CE79CE5E
:106B000079CE0028000000000000000000004501D0
:106B100079CE79CE79CE79CEEF7B000000000500EA
:106B200079CE79CE79CE40290000450179CE79CE53
:106B300079CE79CE79CE79CE79CE79CEEF7B000041
:106B4000050079CE79CE79CE79CE79CE79CE79CE4F
:106B500040290000050079CE79CE79CE4029000089
:106B6000450179CE79CE79CE40290000050079CE55
:106B700079CE79CE79CE79CE79CE79CE79CE79CEDD
:106B800079CE79CE79CE79CE79CE79CE79CE79CECD
:106B9000EF7B00000000450179CE79CE79CE79CE29
:106BA000EF7B00000000450179CE79CE79CE79CE19
:106BB00079CE79CE79CE00280000050079CE79CE45
:106BC00079CE79CE79CE79CE79CE79CE79CE79CE8D
:106BD00079CE79CE402900000000EF7B79CE79CEC6
:106BE00079CE79CE79CE79CE79CE79CE79CE79CE6D
:106BF00079CE79CE79CE79CE79CE79CE79CE79CE5D
:106C000079CE79CE79CE79CE79CE79CE79CE79CE4C
:106C100079CE79CE79CE79CEEF7B00000000EF7B84
:106C200079CE79CE79CE79CE79CE79CE79CE79CE2C
:106C300079CE79CE79CE79CE79CE79CE79CE79CE1C
:106C4000EF7B0000000000000500EF7B000000006B
:106C5000050079CE79CE79CE79CEEF7B0000EF7B3F
:106C600079CE79CE79CE40290000450179CE79CE12
:106C700079CE79CE79CE79CE79CE79CEEF7B000000
:106C8000050079CE79CE79CE79CE79CE79CE79CE0E
:106C900040290000450179CE79CE79CE4029000007
:106CA000450179CE79CE79CE40290000050079CE14
:106CB00079CE79CE79CE4029000000000000000096
:106CC000000000000000050079CE79CE79CEEF7B80
:106CD00000000000050079CE79CE79CE79CE79CE4C
:106CE000EF7B00000000450179CE79CE79CE79CED8
:106CF00079CE79CE79CE00280000050079CE79CE04
:106D000079CE79CE79CE79CE79CE79CE79CE79CE4B
:106D100079CE79CE002800000000EF7B79CE79CEC5
:106D200079CE79CE79CE79CE79CE79CE79CE79CE2B
:106D300079CE79CE79CE79CE79CE79CE79CE79CE1B
:106D400079CE79CE79CE79CE79CE79CE79CE79CE0B
:106D500079CE79CE79CE79CEEF7B00000000EF7B43
:106D600079CE79CE79CE79CE79CE79CE79CE79CEEB
:106D700079CE79CE79CE79CE79CE79CE79CE79CEDB
:106D80000028000000000000050079CEEF7B000025
:106D90000000450179CE79CE79CE79CE79CE79CE03
:106DA00079CE79CE79CE40290000450179CE79CED1
:106DB00079CE79CE79CE79CE79CE79CEEF7B0000BF
:106DC000050079CE79CE79CE79CE79CE79CE79CECD
:106DD00040290000450179CE79CE79CE40290000C6
:106DE000450179CE79CE79CE40290000050079CED3
:106DF00079CE79CE79CE4029000000000000000055
:106E0000000000000000050079CE79CE79CE002880
:106E100000000000EF7B79CE79CE79CE79CE79CEA5
:106E2000EF7B00000000450179CE79CE79CE79CE96
:106E300079CE79CE79CE00280000050079CE79CEC2
:106E400079CE79CE79CE79CE79CE79CE79CE79CE0A
:106E500079CE79CE00280000050079CE79CE79CEA2
:106E600079CE79CE79CE79CE79CE79CE79CE79CEEA
:106E700079CE79CE79CE79CE79CE79CE79CE79CEDA
:106E800079CE79CE79CE79CE79CE79CE79CE79CECA
:106E900079CE79CE79CE79CEEF7B00000000EF7B02
:106EA00079CE79CE79CE79CE79CE79CE79CE79CEAA
:106EB00079CE79CE79CE79CE79CE79CE79CE402978
:106EC0000000050040290000050079CE79CEEF7B57
:106ED0000500EF7B79CE79CE79CE79CE79CE79CE99
:106EE00079CE79CE79CE40290000450179CE79CE90
:106EF00079CEEF7B79CE79CE79CE79CEEF7B00005B
:106F0000050079CE79CE79CE79CE79CE79CE79CE8B
:106F100000280000450179CE79CE79CE40290000C5
:106F2000450179CE79CE79CE40290000050079CE91
:106F300079CE79CE79CE79CEEF7BEF7BEF7BEF7B8D
:106F4000EF7BEF7BEF7B79CE79CE79CE0028000006
:106F50000000000000000000000000000000000031
:106F6000000000000000000000000000050079CED5
:106F700079CE79CE79CE00280000050079CE79CE81
:106F800079CE79CE79CE79CE79CE79CE79CE79CEC9
:106F900079CEEF7B00000000050079CE79CE79CE66
:106FA00079CE79CE79CE79CE79CE79CE79CE79CEA9
:106FB00079CE79CE79CE79CE79CE79CE79CE79CE99
:106FC00079CE79CE79CE79CE79CE79CE79CE79CE89
:106FD00079CE79CE79CE79CEEF7B00000000EF7BC1
:106FE00079CE79CE79CE79CE79CE79CE79CE79CE69
:106FF00079CE79CE79CE79CE79CE79CE79CE002878
:107000000000EF7B40290000050079CE79CE79CED3
:1070100079CE79CE79CE79CE79CE79CEEF7BEF7BF2
:10702000EF7B45294529000000000000000000001A
:1070300000000000EF7B79CE79CE79CEEF7B0000A7
:10704000050079CEEF7B050045294529452900003B
:1070500000000000EF7B79CE79CE79CE4029000088
:10706000450179CE79CE79CE40290000050079CE50
:1070700079CE79CE79CE79CE79CE79CE79CE79CED8
:1070800079CE79CE79CE79CE79CE79CE002800002E
:1070900000000000000000000000000000000000F0
:1070A000000000000000000000000000050079CE94
:1070B00079CE79CE79CE00280000050079CE79CE40
:1070C00079CE79CE79CE79CE79CE79CE79CE79CE88
:1070D00079CE002800000000EF7B79CE79CE79CE02
:1070E00079CE79CE79CE79CE79CE79CE79CE79CE68
:1070F00079CE79CE79CE79CE79CE79CE79CE79CE58
:1071000079CE79CE79CE79CE79CE79CE79CE79CE47
:1071100079CE79CE79CE79CEEF7B00000000EF7B7F
:1071200079CE79CE79CE79CE79CE79CE79CE79CE27
:1071300079CE79CE79CE79CE79CE79CE402900003C
:10714000050079CE40290000050079CE79CE79CEB0
:107150000028000000000000000000000000000007
:10716000000000000000000000000000000000001F
:1071700000000000452979CE79CE79CEEF7B000062
:10718000050079CEEF7B0000000000000000000049
:107190000000450179CE79CE79CE79CE4029000024
:1071A000450179CE79CE79CE40290000050079CE0F
:1071B00079CE79CE79CE79CE79CE79CE79CE79CE97
:1071C00079CE79CE79CE79CE79CE79CE4529452939
:1071D000452945294529452945294529452945293F
:1071E000402900000000000045294529452979CEA5
:1071F00079CE79CE79CE00280000050079CE79CEFF
:1072000079CE79CE79CE79CE79CE79CE79CE79CE46
:10721000402900000000050079CE79CE79CE79CEE4
:1072200079CE79CE79CE79CE79CE79CE79CE79CE26
:1072300079CE79CE79CE79CE79CE79CE79CE79CE16
:1072400079CE79CE79CE79CE79CE79CE79CE79CE06
:1072500079CE79CE79CE79CEEF7B00000000EF7B3E
:1072600079CE79CE79CE79CE79CE79CE79CE79CEE6
:1072700079CE79CE79CE79CE79CEEF7B0000000041
:10728000EF7B79CE40290000050079CE79CE79CE0A
:1072900000280000000000000000000000000000C6
:1072A000050045294529002800004501EF7B79CEDE
:1072B00079CE79CE79CE79CE79CE79CEEF7B0000BA
:1072C000050079CE79CE4529452945294529452905
:1072D000EF7B79CE79CE79CE79CE79CE4029000078
:1072E000450179CE79CE79CE40290000050079CECE
:1072F00079CE79CE79CE79CE79CE79CE79CE79CE56
:1073000079CE79CE79CE79CE79CE79CE79CE79CE45
:1073100079CE79CE79CE79CE79CE79CE79CE79CE35
:10732000EF7B00000000450179CE79CE79CE79CE91
:1073300079CE79CE79CE00280000050079CE79CEBD
:1073400079CE79CE79CE79CE79CE79CE79CE4029E3
:10735000000000000000EF7B79CE79CE79CE79CEA7
:1073600079CE79CE79CE79CE79CE79CE79CE79CEE5
:1073700079CE79CE79CE79CE79CE79CE79CE79CED5
:1073800079CE79CE79CE79CE79CE79CE79CE79CEC5
:1073900079CE79CE79CE79CEEF7B00000000EF7BFD
:1073A00079CE79CE79CE79CE79CE79CE79CE79CEA5
:1073B00079CE79CE79CE79CE79CEEF7B00000500FB
:1073C00079CE79CE40290000050079CE79CE79CEEC
:1073D000EF7BEF7BEF7BEF7B79CE79CE79CE79CEE9
:1073E00079CE79CE79CE40290000450179CE79CE8B
:1073F00079CE79CE79CE79CE79CE79CEEF7B000079
:10740000050079CE79CE79CE79CE79CE79CE79CE86
:1074100079CE79CE40290500EF7B79CE79CEEF7B0E
:1074200079CE79CE79CE79CE40290000050079CE8B
:1074300079CE79CE79CE79CE79CE79CE79CE79CE14
:1074400079CE79CE79CE79CE79CE79CE79CE79CE04
:1074500079CE79CE79CE79CE79CE79CE79CE79CEF4
:10746000EF7B00000000450179CE79CE79CE79CE50
:1074700079CE79CE79CE00280000050079CE79CE7C
:1074800079CE79CE79CE79CE79CEEF7B0028000007
:1074900000000000EF7B79CE79CE79CE79CE79CE1F
:1074A00079CE79CE79CE79CE79CE79CE79CE79CEA4
:1074B00079CE79CE79CE79CE79CE79CE79CE79CE94
:1074C00079CE79CE79CE79CE79CE79CE79CE79CE84
:1074D00079CE79CE79CE79CEEF7B00000000EF7BBC
:1074E00079CE79CE79CE79CE79CE79CE79CE79CE64
:1074F00079CE79CE79CE79CE79CE79CE0028EF7B50
:1075000079CE79CE40290000050079CE79CE79CEAA
:1075100079CE79CE79CE79CE79CE79CE79CE79CE33
:1075200079CE79CE79CE40290000450179CE79CE49
:1075300079CE79CE79CE79CE79CE79CEEF7B000037
:10754000050079CE79CE79CE79CE79CE79CE79CE45
:1075500079CE79CE40290000050079CE79CE79CE5A
:1075600079CE79CE79CE79CE40290000050079CE4A
:1075700079CE79CE79CE79CE79CE79CE79CE79CED3
:1075800079CE79CE79CE79CE79CE79CE79CE79CEC3
:1075900079CE79CE79CE79CE79CE79CE79CE79CEB3
:1075A000EF7B00000000450179CE79CE79CE79CE0F
:1075B00079CE79CE79CE00280000000045294529F2
:1075C0004529452945290000000000000000000071
:1075D0000000EF7B79CE79CE79CE79CE79CE79CE97
:1075E00079CE79CE79CE79CE79CE79CE79CE79CE63
:1075F00079CE79CE79CE79CE79CE79CE79CE79CE53
:1076000079CE79CE79CE79CE79CE79CE79CE79CE42
:1076100079CE79CE79CE79CEEF7B00000000EF7B7A
:1076200079CE79CE79CE79CE79CE79CE79CE79CE22
:1076300079CE79CE79CE79CE79CE79CE79CE79CE12
:1076400079CE79CE40290000050079CE79CE79CE69
:1076500079CE79CE79CE79CE79CE79CE79CE79CEF2
:1076600079CE79CE79CE40290000450179CE79CE08
:1076700079CE79CE79CE79CE79CE79CEEF7B0000F6
:10768000050079CE79CE79CE79CE79CE79CE79CE04
:1076900079CE79CE40290000450179CE79CE79CED8
:1076A00079CE79CE79CE79CE40290000050079CE09
:1076B00079CE79CE79CE79CE79CE79CE79CE79CE92
:1076C00079CE79CE79CE79CE79CE79CE79CE79CE82
:1076D00079CE79CE79CE79CE79CE79CE79CE79CE72
:1076E000EF7B00000000450179CE79CE79CE79CECE
:1076F00079CE79CE79CE002800000000000000008D
:107700000000000000000000000000000000450133
:1077100079CE79CE79CE79CE79CE79CE79CE79CE31
:1077200079CE79CE79CE79CE79CE79CE79CE79CE21
:1077300079CE79CE79CE79CE79CE79CE79CE79CE11
:10774000EF7BEF7BEF7BEF7BEF7BEF7BEF7BEF7BE9
:10775000EF7BEF7BEF7BEF7B4029000000004501D2
:10776000EF7BEF7BEF7BEF7BEF7BEF7BEF7BEF7BC9
:10777000EF7BEF7BEF7BEF7B79CE79CE79CE79CE45
:1077800079CE79CE40290000050079CE79CE79CE28
:1077900079CE79CE79CE79CE79CE79CE79CE79CEB1
:1077A00079CE79CE79CE40290000450179CE79CEC7
:1077B00079CE79CE79CE79CE79CE79CEEF7B0000B5
:1077C000050079CE79CE79CE79CE79CE79CE79CEC3
:1077D00079CE79CE00280000EF7B79CE79CE79CEB4
:1077E00079CE79CE79CE79CE40290000050079CEC8
:1077F00079CE79CE79CE79CE79CE79CE79CE79CE51
:1078000079CE79CE79CE79CE79CE79CE79CE79CE40
:1078100079CE79CE79CE79CE79CE79CE79CE79CE30
:10782000EF7B00000000450179CE79CE79CE79CE8C
:1078300079CE79CE79CE002800000000000000004B
:1078400000000000000000004501EF7B79CE79CEFA
:1078500079CE79CE79CE79CE79CE79CE79CE79CEF0
:1078600079CE79CE79CE79CE79CE79CE79CE79CEE0
:1078700079CE79CE79CE79CE79CE79CE79CEEF7BAD
:1078800000000000000000000000000000000000F8
:1078900000000000000000000000000000000000E8
:1078A00000000000000000000000000000000000D8
:1078B0000000000000000000EF7B79CE79CE79CE89
:1078C00079CE79CE40290000050079CE79CE79CEE7
:1078D00079CE79CE79CE79CE79CE79CE79CE79CE70
:1078E00079CE79CE79CE40290000450179CE79CE86
:1078F00079CE79CE79CE79CE79CE79CEEF7B000074
:107900000000EF7B79CE79CE79CE79CE79CE79CE63
:1079100079CE402900000000EF7B79CE79CE79CE78
:1079200079CE79CE79CE79CE00280000450179CE86
:1079300079CE79CE79CE79CE79CE79CE79CE79CE0F
:1079400079CE79CE79CE79CE79CE79CE79CE79CEFF
:1079500079CE79CE79CE79CE79CE79CE79CE79CEEF
:1079600079CE79CE79CE79CE79CE79CE79CE79CEDF
:1079700079CE79CE79CE79CE79CE79CE79CE79CECF
:1079800079CE79CE79CE79CE79CE79CE79CE79CEBF
:1079900079CE79CE79CE79CE79CE79CE79CE79CEAF
:1079A00079CE79CE79CE79CE79CE79CE79CE79CE9F
:1079B00079CE79CE79CE79CE79CE79CE79CEEF7B6C
:1079C000002800000000000000000000000000008F
:1079D00000000000000000000000000000000000A7
:1079E0000000000000000000000000000000000097
:1079F0000000000000000500EF7B79CE79CE79CE43
:107A000079CE79CE40290000050079CE79CE79CEA5
:107A100079CE79CE79CE79CE79CE79CE79CE79CE2E
:107A200079CE79CE79CE40290000450179CE79CE44
:107A300079CE79CE79CE79CE79CE79CE79CE00282D
:107A40000000000000000000000000000000000036
:107A5000000000000000450179CE79CE40290000E9
:107A6000000000000000000000000000450179CE89
:107A700079CE79CE79CE79CE79CE79CE79CE79CECE
:107A800079CE79CE79CE79CE79CE79CE79CE79CEBE
:107A900079CE79CE79CE79CE79CE79CE79CE79CEAE
:107AA00079CE79CE79CE79CE79CE79CE79CE79CE9E
:107AB00079CE79CE79CE79CE79CE79CE79CE79CE8E
:107AC00079CE79CE79CE79CE79CE79CE79CE79CE7E
:107AD00079CE79CE79CE79CE79CE79CE79CE79CE6E
:107AE00079CE79CE79CE79CE79CE79CE79CE79CE5E
:107AF00079CE79CE79CE79CE79CE79CE79CE79CE4E
:107B000079CE79CE79CE79CE79CE79CE79CE79CE3D
:107B100079CE79CE79CE79CE79CE79CE79CE79CE2D
:107B200079CE79CE79CE79CE79CE79CE79CE79CE1D
:107B300079CE79CE79CE79CE79CE79CE79CE79CE0D
:107B400079CE79CE40290000050079CE79CE79CE64
:107B500079CE79CE79CE79CE79CE79CE79CE79CEED
:107B600079CE79CE79CE40290000450179CE79CE03
:107B700079CE79CE79CE79CE79CE79CE79CEEF7BAA
:107B800000280000000000000000000000000000CD
:107B900000000000452979CE79CE79CE4029000039
:107BA00000000000000000000000050079CE79CE42
:107BB00079CE79CE79CE79CE79CE79CE79CE79CE8D
:107BC00079CE79CE79CE79CE79CE79CE79CE79CE7D
:107BD00079CE79CE79CE79CE79CE79CE79CE79CE6D
:107BE00079CE79CE79CE79CE79CE79CE79CE79CE5D
:107BF00079CE79CE79CE79CE79CE79CE79CE79CE4D
:107C000079CE79CE79CE79CE79CE79CE79CE79CE3C
:107C100079CE79CE79CE79CE79CE79CE79CE79CE2C
:107C200079CE79CE79CE79CE79CE79CE79CE79CE1C
:107C300079CE79CE79CE79CE79CE79CE79CE79CE0C
:107C400079CE79CE79CE79CE79CE79CE79CE79CEFC
:107C500079CE79CE79CE79CE79CE79CE79CE79CEEC
:107C600079CE79CE79CE79CE79CE79CE79CE79CEDC
:107C700079CE79CE79CE79CE79CE79CE79CE79CECC
:107C800079CE79CE40290000050079CE79CE79CE23
:107C900079CE79CE79CE79CE79CE79CE79CE79CEAC
:107CA00079CE79CE79CE40290000450179CE79CEC2
:107CB00079CE79CE79CE79CE79CE79CE79CE79CE8C
:107CC00079CE79CE79CE79CE79CE79CE79CE79CE7C
:107CD00079CE79CE79CE79CE79CE79CEEF7B452922
:107CE0004529452945294529EF7B79CE79CE79CE9D
:107CF00079CE79CE79CE79CE79CE79CE79CE79CE4C
:107D000079CE79CE79CE79CE79CE79CE79CE79CE3B
:107D100079CE79CE79CE79CE79CE79CE79CE79CE2B
:107D200079CE79CE79CE79CE79CE79CE79CE79CE1B
:10A1A00079CE79CE79CE79CE79CE79CE38B50525EE
:10A1B00001F014F801F08AF8002001F061F9DFF8ED
:10A1C000AC2A0321202001F01DFA4FF6FF71280070
:10A1D000C0B200F026F8DFF8984A0421200001F010
:10A1E0007FFD002805D08021200001F079FD0028A6
:10A1F000F1D1322001F042FE0421200001F070FD77
:10A20000002805D08021200001F06AFD0028E2D15D
:10A210000421200001F064FD0028F9D02800C0B21C
:10A2200032BD2DE9F04704000D005FF000094846FB
:10A23000C0B210284EDA2000C0B280B2000150FA3D
:10A2400089F39B1C9BB21C222000C0B280B200018B
:10A2500050FA89F1891C89B20C2001F0F2F8DFF87C
:10A26000140D4946C9B210F811100F004946C9B281
:10A2700000EB4100407880465FF0000A5046C0B2D3
:10A2800008280EDAF80704D5280080B201F0C7F8D4
:10A2900002E0002001F0C3F8FFB27F081AF1010AC2
:10A2A000ECE700263000C0B2082810DA5FEAC87078
:10A2B00004D5280080B201F0B2F802E0002001F0DD
:10A2C000AEF85FFA88F85FEA5808761CEAE719F1F9
:10A2D0000109ACE7BDE8F0872DE9F04F8DB05FF0E4
:10A2E000000B00200C9000200B9041F21C0001F0AC
:10A2F000E1FD01F0CDFF01F0ADFF06A802F084F80A
:10A300009DF8180000F0A5FB8DF80C009DF81900D1
:10A3100000F09FFB8DF80B009DF81A0000F099FBF0
:10A320008DF80A009DF81C0000F093FB8DF80900E1
:10A330009DF81D0000F08DFB8DF808009DF81E00B3
:10A3400000F087FB0400DFF8305C9DF80C002870FB
:10A350009DF80B0068709DF80A00A8709DF8090030
:10A36000E8709DF8080028716C71DFF80469082115
:10A37000300001F0ADFCDFF8047C4FF48051380070
:10A3800001F0AAFC00F02AFF00F0A0FF002001F07D
:10A3900077F800F09FFA5FF00008404680B2062888
:10A3A00006DA4046C0B200F01AFC18F10108F4E7E2
:10A3B0004FF48041DFF8C80B01F092FC8DF80E00DD
:10A3C0009DF80E008DF810004FF40051DFF8B00B2F
:10A3D00001F086FC8DF80D009DF80D008DF816003B
:10A3E000DFF8A09B4FF48061484601F079FC00281B
:10A3F00009D1002001900A2000900B231A2202218B
:10A40000182002F079F806A801F0FEFF9DF8180068
:10A4100000F01FFB8DF80C009DF8190000F019FBEF
:10A420008DF80B009DF81A0000F013FB8DF80A0060
:10A430009DF81C0000F00DFB8DF809009DF81D0033
:10A4400000F007FB8DF808009DF81E0000F001FBEE
:10A4500004009DF80F102000C0B2814200F0B480CB
:10A4600002220221012001F00DF900220221112017
:10A4700001F008F99DF80C100A2091FBF0F00200A1
:10A48000D2B20221212001F0FDF89DF80C000A2231
:10A4900090FBF2F102FB11000200D2B20221312046
:10A4A00001F0F0F89DF80B100A2091FBF0F002008B
:10A4B000D2B20221512001F0E5F89DF80B200A20CC
:10A4C00092FBF0F100FB1122D2B20221612001F0D7
:10A4D000D9F89DF80A100A2091FBF0F00200D2B2E0
:10A4E0000221812001F0CEF89DF80A200A2092FB7B
:10A4F000F0F100FB1122D2B20221912001F0C2F84A
:10A500009DF809100A2091FBF0F00200D2B216214A
:10A51000212001F0B7F89DF809200A2092FBF0F104
:10A5200000FB1122D2B21621312001F0ABF89DF8C8
:10A5300008100A2091FBF0F00200D2B2162151203F
:10A5400001F0A0F89DF808200A2092FBF0F100FB32
:10A550001122D2B21621612001F094F82100C9B273
:10A560000A2091FBF0F00200D2B21621812001F006
:10A5700089F82200D2B20A2092FBF0F100FB1122EE
:10A58000D2B21621912001F07DF89DF80C008DF8D3
:10A5900015009DF80B008DF814009DF80A008DF849
:10A5A00013009DF809008DF812009DF808008DF841
:10A5B00011008DF80F400821300001F0DCFB4FF452
:10A5C0008051380001F0D7FBDFF8A4AB02208AF8F5
:10A5D00000004FF48071300001F082FB002813D19D
:10A5E000022001F04BFC4FF48071300001F078FB49
:10A5F000002802D100208AF800004FF4807130005A
:10A6000001F06EFB0028F8D04021300001F068FB1B
:10A61000002811D1022001F031FC4021300001F06E
:10A620005FFB002802D101208AF8000040213000A1
:10A6300001F056FB0028F9D09AF80000002841D11B
:10A640005846C0B2002808D0002200215846C0B2A7
:10A6500000F088FABBF1010B16E04FF40071484698
:10A6600001F03EFB00280FD14FF48071380001F05B
:10A670002FFB0A2001F002FC4FF48071380001F03A
:10A680002BFB052001F0FAFB4FF40071484601F066
:10A6900027FB00280CD14FF48071380001F018FB23
:10A6A000012001F0EBFB4FF48071380001F014FB46
:10A6B00000224DF243315846C0B200F053FA022056
:10A6C0008AF800009AF80000012841D15846C0B22B
:10A6D000052808DA002200215846C0B200F042FAEC
:10A6E0001BF1010B16E04FF40071484601F0F8FA37
:10A6F00000280FD14FF48071380001F0E9FA0A20E8
:10A7000001F0BCFB4FF48071380001F0E5FA052040
:10A7100001F0B4FB4FF40071484601F0E1FA002863
:10A720000CD14FF48071380001F0D2FA012001F011
:10A73000A5FB4FF48071380001F0CEFA00224DF2F3
:10A7400043315846C0B200F00DFA02208AF80000EA
:10A75000DFF82CA84FF48041504601F0C1FA8DF883
:10A760000E004FF40051504601F0BAFA8DF80D007A
:10A770009DF810109DF80E00814237D09DF80E0014
:10A78000002833D19DF80D00012812D15846C0B2DF
:10A79000285CDFF8E0295946C9B202EB410149784B
:10A7A000884206D25846C0B2295C491C5846C0B2FD
:10A7B00029549DF80D00002811D1DFF8B81958462A
:10A7C000C0B211F810005946C9B2695C884206D27D
:10A7D0005846C0B2285C411E5846C0B2295458465B
:10A7E000C0B200F0FCF9282001F048FB9DF80E00F3
:10A7F0008DF810009DF80D008DF816000421300032
:10A8000001F06EFA002850D1C82001F037FB042176
:10A81000300001F065FA002831D1DFF85CA90C980E
:10A82000AAF808000B98AAF80A000020CAF810003D
:10A8300006208AF803000020CAF80C00287800F0EF
:10A8400014F98AF80000687800F00FF98AF801001E
:10A85000A87800F00AF98AF80200E87800F005F913
:10A860008AF80400287900F000F98AF80500687970
:10A8700000F0FBF88AF80600504601F011FD4FF495
:10A880008071380001F024FA282001F0F7FA4FF423
:10A890008071380001F020FA0421300001F020FA24
:10A8A0000028F9D0642001F0E9FA18F101084046C7
:10A8B00080B200900E231D221A21012001F02BF9F5
:10A8C0008021300001F00CFA00287FF49CAD0DB01F
:10A8D000BDE8F08F7CB54FF6E0741F200090230098
:10A8E000DFF898280321012000F0A7FE4FF4FC6058
:10A8F00000901F23DFF888280321292000F09DFE07
:10A900004FF4784000904FF6FF73DFF8782803216A
:10A91000512000F092FE1F200090230000223221DF
:10A92000192000F0B2F84FF4FC6000901F230122C0
:10A930003221412000F0A9F844F2082420000090C0
:10A940000523A0222B21012001F0E5F8DFF838587B
:10A950004FF6A0663000009011232A000421012048
:10A9600000F06BFE300000901123DFF82028042156
:10A97000052000F062FE3000009011232A0004211F
:10A98000592000F05AFE300000901123DFF8002813
:10A9900004215D2000F051FE30000090112370A2D0
:10A9A0000521112000F049FE300000901123AAA2D9
:10A9B0000621112000F041FE300000901123A7A2D3
:10A9C0000721112000F039FE300000901123A4A2CD
:10A9D0000521692000F031FE300000901123A1A272
:10A9E0000621692000F029FE009611239EA207216E
:10A9F000692000F022FE00943F23102242214920CA
:10AA000001F089F80A220221412000F03BFE0A22CF
:10AA10000221712000F036FE0B221621412000F0A9
:10AA200031FE0B221621712000F02CFE4DF2433432
:10AA300000200090230002225221012000F025F87E
:10AA400000200090230003225221392000F01DF83D
:10AA500073BD0200D2B21209D2B20A21C0B210F004
:10AA60000F0001FB0200C0B2704701000800C0B235
:10AA70000A22C9B20A2391FBF3F390FBF2F102FB25
:10AA8000110050EA0310C0B270472DE9F34F81B0B6
:10AA900093461D000C9C5846C0B204285EDA5FF055
:10AAA00000094846C0B2102858DA9DF8080050FA4C
:10AAB00089F39BB29DF80420103292B29DF80800F1
:10AAC00050FA89F189B29DF8040080B200F0B9FC17
:10AAD000DFF8C0065946C9B2490100EB01024946F8
:10AAE000C9B212F811100F005946C9B24901014408
:10AAF0004846C0B201EB4000407880465FF0000A53
:10AB00005046C0B208280FDAF80704D5280080B2F2
:10AB100000F085FC03E0200080B200F080FCFFB272
:10AB20007F081AF1010AEBE700263000C0B20828BE
:10AB300011DA5FEAC87004D5280080B200F06FFC1B
:10AB400003E0200080B200F06AFC5FFA88F85FEA58
:10AB50005808761CE9E719F10109A2E7BDE8F78F6B
:10AB600059593A002DE9FC4104000D00904620009F
:10AB7000C0B2012807D015D303280AD006D3052870
:10AB80000DD009D30EE0012662270DE001267227C1
:10AB90000AE05926522707E05926622704E0592681
:10ABA000722701E001265227404680B200902B0018
:10ABB0009BB202223900C9B23000C0B2FFF765FF74
:10ABC000404680B200902B009BB203223900C9B2EC
:10ABD00016F13800C0B2FFF758FFBDE8F38170B539
:10ABE00086B006003000C0B2062832DA3000C0B2AB
:10ABF000012807D015D303280AD006D305280DD085
:10AC000009D30EE0292406250DE0292407250AE0B2
:10AC10008124052507E08124062504E081240725F9
:10AC200001E029240525D4493000C0B20A5CDFF8D0
:10AC3000681501A801F00CFD4FF6FF70009000238D
:10AC400001AA2900C9B289B22000C0B280B200F0C6
:10AC5000F4FC06B070BD00004D4D3A0044443A008B
:10AC600068683A006D6D3A0073733A003C0000204A
:10AC7000001802402DE9FE4F00240020ADF8060028
:10AC80005FF000095FF0000B00F0A8FA00F01EFB77
:10AC9000002000F0F5FB01F0FBFC01F023FF00F0C9
:10ACA00075F9DFF8F8542A000421052000F0AAFC09
:10ACB00001F0F4FF0600701C8DF80400DFF8E0746A
:10ACC000DFF8E084B8F800003880641C01F0E6FF8B
:10ACD00006003988B8F8000081421FD03888B8F8DB
:10ACE0000010884202D219F1010906E0B8F80010FC
:10ACF0003888814201D2B9F10109B8F800003880E2
:10AD0000DFF8A4A44A4612B2DFF8A014504601F0BE
:10AD10009FFC52460421052000F074FC9DF80410AD
:10AD20003000C0B2814200F0AC80DFF858A24FF48E
:10AD30000071504600F0D4FF002811D00020009090
:10AD40000C2311224021522000F0E5FE4FF6FF7047
:10AD500000900C2311225121522000F0DCFE10E063
:10AD60004FF6FF7000900C2311224021522000F07A
:10AD7000D2FE002000900C2311225121522000F01D
:10AD8000CAFE4FF48061504600F0AAFF002811D09F
:10AD9000002000900C2311224021662000F0BBFE11
:10ADA0004FF6FF7000900C2311225121662000F015
:10ADB000B2FE10E04FF6FF7000900C2311224021EC
:10ADC000662000F0A8FE002000900C2311225121E3
:10ADD000662000F0A0FE4FF40061504600F080FFB6
:10ADE000002811D0002000900C23112240217A204D
:10ADF00000F091FE4FF6FF7000900C2311225121BC
:10AE00007A2000F088FE10E04FF6FF7000900C23CF
:10AE1000112240217A2000F07EFE002000900C23B9
:10AE2000112251217A2000F076FE4FF480415046E5
:10AE300000F056FF002811D0002000900C231122B2
:10AE400040218E2000F067FE4FF6FF7000900C232B
:10AE5000112251218E2000F05EFE10E04FF6FF70AF
:10AE600000900C23112240218E2000F054FE00207F
:10AE700000900C23112251218E2000F04CFE8DF801
:10AE80000460DFF804A10421504600F029FF0028E7
:10AE900015D14FF4784000900C231B22732114200D
:10AEA00000F039FE002081462A000421052000F030
:10AEB000A9FB4FF48071314800F00AFF0DE044F225
:10AEC000082000900C231B227321142000F023FE85
:10AED0004FF48071294800F0FFFE4FF48071504616
:10AEE00000F0FEFE00280DD11F2000900C231B2235
:10AEF00073214C2000F00FFE4FF480511F4800F0EA
:10AF0000E7FE0DE044F2082000900C231B22732181
:10AF10004C2000F000FE4FF48051184800F0DCFE99
:10AF20004021504600F0DCFE00280DD14FF4FC60BB
:10AF300000900C231B227321842000F0ECFD0821DB
:10AF4000504600F0C5FE0CE044F2082000900C23AF
:10AF50001B227321842000F0DEFD0821504600F002
:10AF6000BBFE8021504600F0BBFE00287FF4ADAE52
:10AF7000BDE8FE8F8C330108C4B8002000000240F9
:10AF800000040240000C024000180240FEB54FF4DD
:10AF90007846340000F0D1F8834D854FF87B02905D
:10AFA000B87B0190787B00903B7BFA7A814928003E
:10AFB00001F04EFB2A000021012000F023FB3A881B
:10AFC0007D49280001F044FB2A000121012000F006
:10AFD00019FB7A887949280001F03AFB2A000221FE
:10AFE000012000F00FFB7649280001F031FB2A0018
:10AFF0000321012000F006FB4FF4784000904FF64B
:10B00000E073704A0621012000F017FB1F2000901A
:10B010004FF6FF736C4A0621392000F00EFB4FF407
:10B02000FC6000900023694A0621712000F005FBB6
:10B03000674A0721012000F0E5FA33009BB2502255
:10B040003E21502000F0BBFC33009BB250225E2119
:10B05000502000F0B4FC33009BB220223E2150204F
:10B0600000F0D8FC33009BB220223E21642000F087
:10B07000D1FC33009BB220223E21782000F0CAFC94
:10B0800033009BB220223E218C2000F0C3FC330011
:10B090009BB221223E21A02000F0BCFC4FF478435B
:10B0A0004F225321012000F08AFC4FF4FC634F2211
:10B0B0005521012000F083FC1F234F22572101203E
:10B0C00000F07DFC4EF67D73A1226121002000F08E
:10B0D00076FC4FF47840009010231E22702112203D
:10B0E00000F0C3FC44F20825280000900C231B222A
:10B0F0007321142000F00FFD1F20009010231E224A
:10B1000070214A2000F0B1FC280000900C231B2283
:10B1100073214C2000F0FFFC4FF4FC6000901023E2
:10B120001E227021822000F0A0FC00950C231B221F
:10B130007321842000F0EFFCF7BD10B425480168AE
:10B140001B4A0800000C1080518000231800C0B278
:10B150000C280ADA1C00E4B21F48041920781C00ED
:10B16000E4B2144420715B1CF0E710BC704700008F
:10B1700008B900207C3501088CB80020883501080A
:10B180009035010834350108403501084C35010877
:10B1900058350108B83101089835010864350108AF
:10B1A000EEB80020ECB80020A0B8002070350108EF
:10B1B000B4B800206C3301080034010818340108C9
:10B1C00030340108A0350108A8350108B035010860
:10B1D00048340108207AFF1F107AFF1F18B587B086
:10B1E00040F6044000F066FE41F2141000F062FEEA
:10B1F000324C4FF4A0420621200000F07BFD4FF4BA
:10B20000A04300220221200000F0FCFC4FF4A043E8
:10B2100002220021200000F02BFD002001904FF4BD
:10B220008270009000200290002005904FF4007082
:10B2300003900020069000200490214C69462000D5
:10B2400001F05CFD0021200001F07BFD200001F0F9
:10B2500073FD00F002F808B010BD18B589B040F6D3
:10B26000164000F027FE174C0421200001F07CFD61
:10B2700040200690002002900020039000200490BF
:10B280004FF42040079010480090012001905FF497
:10B29000403008906A460421200001F0CDFD0421D1
:10B2A000200001F07BFE02220421200001F0ACFE10
:10B2B0000421200001F096FE0AB010BD00100240EB
:10B2C00000500140006402400C50014010B5DFF80E
:10B2D00078440121200000F0FBFC0221200000F056
:10B2E000F7FC1021200000F0F3FC052000F0C6FD63
:10B2F0001021200000F0F0FC052000F0BFFD10211F
:10B30000200000F0E5FC0221200000F0E1FC052017
:10B3100000F0B4FD0221200000F0DEFC112000F05E
:10B3200066F8142000F0AAFDB12000F060F80520B6
:10B3300000F069F83C2000F066F83C2000F063F86B
:10B34000B22000F054F8052000F05DF83C2000F039
:10B350005AF83C2000F057F8B32000F048F80520D8
:10B3600000F051F83C2000F04EF83C2000F04BF883
:10B37000052000F048F83C2000F045F83C2000F0A3
:10B3800042F8B42000F033F8032000F03CF83A20F3
:10B3900000F02DF8052000F036F8202000F027F806
:10B3A000132000F024F8262000F021F8012000F0FE
:10B3B0002AF8292000F01BF8362000F018F8702039
:10B3C00000F021F8002000F05BF810BD0100DFF86C
:10B3D000D00702689207FAD5DFF8C8270B00DBB266
:10B3E00013600368DB07FCD51068C0B2704710B566
:10B3F00004000821DFF8500300F06EFC2000C0B20A
:10B40000FFF7E4FF10BD10B504000821DFF8380392
:10B4100000F05EFC2000C0B2FFF7D8FF10BD10B5F1
:10B4200004000821DFF8200300F052FC200080B265
:10B43000000AC0B2FFF7CAFF2000C0B2FFF7C6FF84
:10B4400010BDF8B507000C0015001E002A20FFF7FC
:10B45000CEFF380080B2FFF7E2FF280080B2FFF78E
:10B46000DEFF2B20FFF7C3FF200080B2FFF7D7FFDE
:10B47000300080B2FFF7D3FF2C20FFF7B8FFF1BDFB
:10B4800070B504007F239F2200210020FFF7D9FF21
:10B490000025280080B2A0280DDA00200600300028
:10B4A00080B2802805DA200080B2FFF7B8FF761C52
:10B4B000F5E76D1CEDE770BD38B505000C00230005
:10B4C0009BB22A0092B2210089B2280080B2FFF715
:10B4D000B8FF31BD70B506000C00150023009BB20B
:10B4E000320092B2210089B2300080B2FFF7A9FF8A
:10B4F000280080B2FFF793FF70BD2DE9F8430400E8
:10B500000D0016005FF000094846C0B2102832DA7C
:10B5100055FA89F39BB2E21D92B255FA89F189B2CC
:10B52000200080B2FFF78DFFDFF8D0063100C9B2EE
:10B53000090101444846C0B20844B0F500700078E3
:10B540008046002007003800C0B2082810DA5FEA01
:10B55000C87004D54FF6FF70FFF761FF02E00020CE
:10B56000FFF75DFF5FFA88F85FEA58087F1CEAE79B
:10B5700019F10109C8E7BDE8F1832DE9F84F8346C9
:10B580000D0016001F000A9C5FF0000A5046C0B272
:10B59000102835DA55FA8AF39BB21BF1070292B2F2
:10B5A00055FA8AF189B2584680B2FFF74AFFDFF8B0
:10B5B0004C063100C9B2090101445046C0B20844EA
:10B5C000B0F5007000788146002080464046C0B249
:10B5D000082812DA5FEAC97004D5380080B2FFF794
:10B5E0001EFF03E0200080B2FFF719FF5FFA89F920
:10B5F0005FEA590918F10108E8E71AF1010AC5E7FD
:10B60000BDE8F18FF8B504000D00160000273800E2
:10B61000C0B2305C00280FD03800C0B2325CADB28E
:10B62000290189B23800C0B2C00010FA84F080B29B
:10B63000FFF763FF7F1CEAE7F1BD2DE9FC41040041
:10B640000D0016001F005FF000084046C0B2305CDD
:10B65000002815D0BDF8200000903B009BB240466A
:10B66000C0B2325CADB2290189B24046C0B2C0005E
:10B6700010FA84F080B2FFF780FF18F10108E4E7C8
:10B68000BDE8F3812DE9F84F83460C0015005FF00B
:10B6900000094846C0B2112854DA54FA89F39B1CB9
:10B6A0009BB21BF10F0292B254FA89F1891C89B244
:10B6B000584680B2FFF7C5FE2220DFF844152A0065
:10B6C000D2B2424301EB02034A46D2B213F812202F
:10B6D00017002A00D2B200FB02F001444846C0B273
:10B6E00001EB4000407880465FF0000A5046C0B24F
:10B6F00008280EDAF80704D54FF6FF70FFF78FFE23
:10B7000002E00020FFF78BFEFFB27F081AF1010A6A
:10B71000ECE700263000C0B2082810DA5FEAC870F3
:10B7200004D54FF6FF70FFF77AFE02E00020FFF726
:10B7300076FE5FFA88F85FEA5808761CEAE719F1A6
:10B740000109A6E7BDE8F18F000C02402DE9FC419C
:10B7500004000D001600300040B200280AD52D224A
:10B76000ADB2290189B2200080B2FFF7C6FE76B2E1
:10B77000764207E02022ADB2290189B2200080B2D2
:10B78000FFF7BBFE310049B2642091FBF0F08DF869
:10B790000000310049B20A2091FBF0F20A206F4606
:10B7A00092FBF0F100FB11227A70300040B20A22C5
:10B7B00090FBF2F102FB11008DF802005FF000082F
:10B7C0004046C0B2032813DA4046C0B23A5C303279
:10B7D000D2B2ADB2290189B24046C0B2401CC0000D
:10B7E00010FA84F080B2FFF788FE18F10108E7E74D
:10B7F000BDE8F3812DE9FC4104000D001600300086
:10B8000000B200280AD52D22ADB2290189B220004C
:10B8100080B2FFF772FE36B2764207E02022ADB268
:10B82000290189B2200080B2FFF767FE310009B21A
:10B8300042F2107091FBF0F08DF80000310009B277
:10B840004FF47A7091FBF0F00A226F4690FBF2F110
:10B8500002FB11007870300000B2642190FBF1F01F
:10B860000A2290FBF2F102FB11008DF80200300079
:10B8700000B20A2190FBF1F00A2190FBF1F201FBEA
:10B8800012008DF80300300000B20A2190FBF1F2A3
:10B8900001FB12008DF804005FF000084046C0B2C2
:10B8A000052813DA4046C0B23A5C3032D2B2ADB2AB
:10B8B000290189B24046C0B2401CC00010FA84F091
:10B8C00080B2FFF71AFE18F10108E7E7BDE8F3813F
:10B8D0002DE9FE4307000C0015001E00280000B2F1
:10B8E00000280AD52D22A4B2210189B2380080B2E5
:10B8F000FFF703FE2DB26D4207E02022A4B2210122
:10B9000089B2380080B2FFF7F8FD290009B242F28F
:10B91000107091FBF0F08DF80400290009B24FF48B
:10B920007A7091FBF0F00A220DF1040890FBF2F11D
:10B9300002FB110088F80100280000B2642190FB8E
:10B94000F1F00A2290FBF2F102FB11008DF80600E3
:10B95000280000B20A2190FBF1F00A2290FBF2F1DC
:10B9600002FB11008DF80700280000B20A2190FBAD
:10B97000F1F201FB12008DF808005FF00009484663
:10B98000C0B2052819DABDF82800009033009BB238
:10B990004846C0B218F800203032D2B2A4B2210119
:10B9A00089B24846C0B2401CC00010FA87F080B28D
:10B9B000FFF7E3FD19F10109E1E7BDE8F7832DE9A0
:10B9C000F04104000D0090461E000020414689B25F
:10B9D00011FA84F1A12907DA210089B2A02903DA3A
:10B9E000290089B2802900DB12E000273900C9B2A2
:10B9F000404689B280B281420AD2320092B2290016
:10BA000089B254FA87F080B2FFF764FD7F1CEDE73E
:10BA1000BDE8F0812DE9F04104000D0090461E00C4
:10BA20000020414689B211FA85F1812907DA210007
:10BA300089B2A02903DA290089B2802900DB12E04B
:10BA400000273900C9B2404689B280B281420AD289
:10BA5000320092B255FA87F189B2200080B2FFF726
:10BA600039FD7F1CEDE7BDE8F0812DE9F0410500CF
:10BA70000E0090461F00069C4046C0B250FA85F06A
:10BA8000A1280DDA3800C0B250FA86F0812807DA12
:10BA90002800C0B2A02803DA3000C0B2802800DB42
:10BAA00037E023009BB24246D2B292B23100C9B213
:10BAB00089B22800C0B280B2FFF781FF23009BB299
:10BAC0004246D2B292B23800C0B250FA86F189B280
:10BAD0002800C0B280B2FFF772FF23009BB23A0089
:10BAE000D2B292B23100C9B289B22800C0B280B2DB
:10BAF000FFF790FF23009BB23A00D2B292B231001E
:10BB0000C9B289B24046C0B250FA85F080B2FFF7A0
:10BB100081FFBDE8F0812DE9F04705000E00170018
:10BB20009846089C3800C0B250FA85F0A1280DDA7A
:10BB30004046C0B250FA86F0812807DA2800C0B229
:10BB4000A02803DA3000C0B2802800DB25E05FF0D7
:10BB5000000949464046C9B2C0B281421DD2002008
:10BB6000824651463800C9B2C0B2814212D248461C
:10BB7000C0B250FA86F189B25046C0B250FA85F090
